{
  "_format": "hh-sol-artifact-1",
  "contractName": "MultiSigEHR",
  "sourceName": "contracts/MultiSigEHR.sol",
  "abi": [
    {
      "anonymous": false,
      "inputs": [
        {
          "indexed": false,
          "internalType": "address",
          "name": "patient",
          "type": "address"
        },
        {
          "indexed": false,
          "internalType": "address",
          "name": "doctor",
          "type": "address"
        }
      ],
      "name": "AccessGranted",
      "type": "event"
    },
    {
      "anonymous": false,
      "inputs": [
        {
          "indexed": false,
          "internalType": "address",
          "name": "doctor",
          "type": "address"
        },
        {
          "indexed": false,
          "internalType": "string",
          "name": "name",
          "type": "string"
        }
      ],
      "name": "DoctorRegistered",
      "type": "event"
    },
    {
      "anonymous": false,
      "inputs": [
        {
          "indexed": false,
          "internalType": "address",
          "name": "patient",
          "type": "address"
        },
        {
          "indexed": false,
          "internalType": "string",
          "name": "name",
          "type": "string"
        }
      ],
      "name": "PatientRegistered",
      "type": "event"
    },
    {
      "anonymous": false,
      "inputs": [
        {
          "indexed": false,
          "internalType": "address",
          "name": "patient",
          "type": "address"
        },
        {
          "indexed": false,
          "internalType": "string",
          "name": "ipfsHash",
          "type": "string"
        }
      ],
      "name": "RecordUploaded",
      "type": "event"
    },
    {
      "anonymous": false,
      "inputs": [
        {
          "indexed": false,
          "internalType": "address",
          "name": "patient",
          "type": "address"
        },
        {
          "indexed": false,
          "internalType": "address",
          "name": "doctor",
          "type": "address"
        }
      ],
      "name": "TrustedDoctorAdded",
      "type": "event"
    },
    {
      "anonymous": false,
      "inputs": [
        {
          "indexed": false,
          "internalType": "address",
          "name": "patient",
          "type": "address"
        },
        {
          "indexed": false,
          "internalType": "address",
          "name": "doctor",
          "type": "address"
        }
      ],
      "name": "TrustedDoctorRemoved",
      "type": "event"
    },
    {
      "anonymous": false,
      "inputs": [
        {
          "indexed": false,
          "internalType": "address",
          "name": "patient",
          "type": "address"
        },
        {
          "indexed": false,
          "internalType": "address",
          "name": "doctor",
          "type": "address"
        },
        {
          "indexed": false,
          "internalType": "address",
          "name": "approver",
          "type": "address"
        }
      ],
      "name": "ViewApproved",
      "type": "event"
    },
    {
      "anonymous": false,
      "inputs": [
        {
          "indexed": false,
          "internalType": "address",
          "name": "patient",
          "type": "address"
        },
        {
          "indexed": false,
          "internalType": "address",
          "name": "doctor",
          "type": "address"
        }
      ],
      "name": "ViewRequested",
      "type": "event"
    },
    {
      "inputs": [
        {
          "internalType": "address",
          "name": "_doctor",
          "type": "address"
        }
      ],
      "name": "addTrustedDoctor",
      "outputs": [],
      "stateMutability": "nonpayable",
      "type": "function"
    },
    {
      "inputs": [
        {
          "internalType": "address",
          "name": "_patient",
          "type": "address"
        },
        {
          "internalType": "address",
          "name": "_requester",
          "type": "address"
        }
      ],
      "name": "approveRecordView",
      "outputs": [],
      "stateMutability": "nonpayable",
      "type": "function"
    },
    {
      "inputs": [
        {
          "internalType": "address",
          "name": "_patient",
          "type": "address"
        },
        {
          "internalType": "address",
          "name": "_requester",
          "type": "address"
        }
      ],
      "name": "canViewRecords",
      "outputs": [
        {
          "internalType": "bool",
          "name": "",
          "type": "bool"
        }
      ],
      "stateMutability": "view",
      "type": "function"
    },
    {
      "inputs": [
        {
          "internalType": "address",
          "name": "",
          "type": "address"
        }
      ],
      "name": "doctors",
      "outputs": [
        {
          "internalType": "string",
          "name": "name",
          "type": "string"
        },
        {
          "internalType": "address",
          "name": "wallet",
          "type": "address"
        },
        {
          "internalType": "bool",
          "name": "isRegistered",
          "type": "bool"
        }
      ],
      "stateMutability": "view",
      "type": "function"
    },
    {
      "inputs": [
        {
          "internalType": "address",
          "name": "_patient",
          "type": "address"
        },
        {
          "internalType": "address",
          "name": "_requester",
          "type": "address"
        }
      ],
      "name": "getApprovalsCount",
      "outputs": [
        {
          "internalType": "uint256",
          "name": "",
          "type": "uint256"
        }
      ],
      "stateMutability": "view",
      "type": "function"
    },
    {
      "inputs": [
        {
          "internalType": "address",
          "name": "_patient",
          "type": "address"
        }
      ],
      "name": "getPatientRecords",
      "outputs": [
        {
          "components": [
            {
              "internalType": "string",
              "name": "ipfsHash",
              "type": "string"
            },
            {
              "internalType": "address",
              "name": "uploadedBy",
              "type": "address"
            }
          ],
          "internalType": "struct MultiSigEHR.MedicalRecord[]",
          "name": "",
          "type": "tuple[]"
        }
      ],
      "stateMutability": "view",
      "type": "function"
    },
    {
      "inputs": [
        {
          "internalType": "address",
          "name": "_patient",
          "type": "address"
        }
      ],
      "name": "getTrustedDoctors",
      "outputs": [
        {
          "internalType": "address[]",
          "name": "",
          "type": "address[]"
        }
      ],
      "stateMutability": "view",
      "type": "function"
    },
    {
      "inputs": [
        {
          "internalType": "address",
          "name": "_patient",
          "type": "address"
        },
        {
          "internalType": "address",
          "name": "_requester",
          "type": "address"
        },
        {
          "internalType": "address",
          "name": "_approver",
          "type": "address"
        }
      ],
      "name": "hasApproved",
      "outputs": [
        {
          "internalType": "bool",
          "name": "",
          "type": "bool"
        }
      ],
      "stateMutability": "view",
      "type": "function"
    },
    {
      "inputs": [
        {
          "internalType": "address",
          "name": "",
          "type": "address"
        },
        {
          "internalType": "address",
          "name": "",
          "type": "address"
        }
      ],
      "name": "isTrustedDoctor",
      "outputs": [
        {
          "internalType": "bool",
          "name": "",
          "type": "bool"
        }
      ],
      "stateMutability": "view",
      "type": "function"
    },
    {
      "inputs": [],
      "name": "minApprovalsRequired",
      "outputs": [
        {
          "internalType": "uint256",
          "name": "",
          "type": "uint256"
        }
      ],
      "stateMutability": "view",
      "type": "function"
    },
    {
      "inputs": [
        {
          "internalType": "address",
          "name": "",
          "type": "address"
        },
        {
          "internalType": "uint256",
          "name": "",
          "type": "uint256"
        }
      ],
      "name": "patientRecords",
      "outputs": [
        {
          "internalType": "string",
          "name": "ipfsHash",
          "type": "string"
        },
        {
          "internalType": "address",
          "name": "uploadedBy",
          "type": "address"
        }
      ],
      "stateMutability": "view",
      "type": "function"
    },
    {
      "inputs": [
        {
          "internalType": "address",
          "name": "",
          "type": "address"
        }
      ],
      "name": "patients",
      "outputs": [
        {
          "internalType": "string",
          "name": "name",
          "type": "string"
        },
        {
          "internalType": "address",
          "name": "wallet",
          "type": "address"
        },
        {
          "internalType": "bool",
          "name": "isRegistered",
          "type": "bool"
        }
      ],
      "stateMutability": "view",
      "type": "function"
    },
    {
      "inputs": [
        {
          "internalType": "string",
          "name": "_name",
          "type": "string"
        }
      ],
      "name": "registerDoctor",
      "outputs": [],
      "stateMutability": "nonpayable",
      "type": "function"
    },
    {
      "inputs": [
        {
          "internalType": "string",
          "name": "_name",
          "type": "string"
        }
      ],
      "name": "registerPatient",
      "outputs": [],
      "stateMutability": "nonpayable",
      "type": "function"
    },
    {
      "inputs": [
        {
          "internalType": "address",
          "name": "_doctor",
          "type": "address"
        }
      ],
      "name": "removeTrustedDoctor",
      "outputs": [],
      "stateMutability": "nonpayable",
      "type": "function"
    },
    {
      "inputs": [
        {
          "internalType": "address",
          "name": "_patient",
          "type": "address"
        }
      ],
      "name": "requestRecordView",
      "outputs": [],
      "stateMutability": "nonpayable",
      "type": "function"
    },
    {
      "inputs": [
        {
          "internalType": "address",
          "name": "",
          "type": "address"
        },
        {
          "internalType": "uint256",
          "name": "",
          "type": "uint256"
        }
      ],
      "name": "trustedDoctors",
      "outputs": [
        {
          "internalType": "address",
          "name": "",
          "type": "address"
        }
      ],
      "stateMutability": "view",
      "type": "function"
    },
    {
      "inputs": [
        {
          "internalType": "string",
          "name": "_ipfsHash",
          "type": "string"
        }
      ],
      "name": "uploadRecord",
      "outputs": [],
      "stateMutability": "nonpayable",
      "type": "function"
    }
  ],
  "bytecode": "0x6080604052600260005534801561001557600080fd5b50613038806100256000396000f3fe608060405234801561001057600080fd5b50600436106101165760003560e01c80637fb869bb116100a2578063970c8ec211610071578063970c8ec214610304578063a9583c2214610334578063dba9768d14610366578063e7c013e414610396578063f2a2adba146103c657610116565b80637fb869bb1461027f578063869c9eaf1461029b5780638f09ab5b146102b757806394f0df61146102d357610116565b80633a1cabcf116100e95780633a1cabcf146101c957806368c65e09146101e75780637823d93814610217578063791c6fd6146102335780637f675e5a1461024f57610116565b80630869cfbc1461011b5780630dc8de7a1461014d57806318bd48471461016957806323b7a49214610199575b600080fd5b61013560048036038101906101309190611f14565b6103e2565b60405161014493929190611ffb565b60405180910390f35b61016760048036038101906101629190611f14565b6104c1565b005b610183600480360381019061017e9190611f14565b61081a565b6040516101909190612191565b60405180910390f35b6101b360048036038101906101ae91906121b3565b610a78565b6040516101c0919061220c565b60405180910390f35b6101d1610ac6565b6040516101de919061220c565b60405180910390f35b61020160048036038101906101fc9190611f14565b610acc565b60405161020e91906122d6565b60405180910390f35b610231600480360381019061022c9190611f14565b610b99565b005b61024d60048036038101906102489190611f14565b610ea4565b005b610269600480360381019061026491906121b3565b611298565b60405161027691906122f8565b60405180910390f35b61029960048036038101906102949190612448565b6112c7565b005b6102b560048036038101906102b09190612448565b611484565b005b6102d160048036038101906102cc9190612448565b611643565b005b6102ed60048036038101906102e891906124bd565b611802565b6040516102fb9291906124fd565b60405180910390f35b61031e6004803603810190610319919061252d565b6118eb565b60405161032b91906122f8565b60405180910390f35b61034e60048036038101906103499190611f14565b611984565b60405161035d93929190611ffb565b60405180910390f35b610380600480360381019061037b91906121b3565b611a63565b60405161038d91906122f8565b60405180910390f35b6103b060048036038101906103ab91906124bd565b611abe565b6040516103bd9190612580565b60405180910390f35b6103e060048036038101906103db91906121b3565b611b0c565b005b6002602052806000526040600020600091509050806000018054610405906125ca565b80601f0160208091040260200160405190810160405280929190818152602001828054610431906125ca565b801561047e5780601f106104535761010080835404028352916020019161047e565b820191906000526020600020905b81548152906001019060200180831161046157829003601f168201915b5050505050908060010160009054906101000a900473ffffffffffffffffffffffffffffffffffffffff16908060010160149054906101000a900460ff16905083565b600260003373ffffffffffffffffffffffffffffffffffffffff1673ffffffffffffffffffffffffffffffffffffffff16815260200190815260200160002060010160149054906101000a900460ff16610550576040517f08c379a000000000000000000000000000000000000000000000000000000000815260040161054790612647565b60405180910390fd5b600160008273ffffffffffffffffffffffffffffffffffffffff1673ffffffffffffffffffffffffffffffffffffffff16815260200190815260200160002060010160149054906101000a900460ff166105df576040517f08c379a00000000000000000000000000000000000000000000000000000000081526004016105d6906126b3565b60405180910390fd5b600560003373ffffffffffffffffffffffffffffffffffffffff1673ffffffffffffffffffffffffffffffffffffffff16815260200190815260200160002060008273ffffffffffffffffffffffffffffffffffffffff1673ffffffffffffffffffffffffffffffffffffffff16815260200190815260200160002060009054906101000a900460ff16156106a9576040517f08c379a00000000000000000000000000000000000000000000000000000000081526004016106a09061271f565b60405180910390fd5b600460003373ffffffffffffffffffffffffffffffffffffffff1673ffffffffffffffffffffffffffffffffffffffff168152602001908152602001600020819080600181540180825580915050600190039060005260206000200160009091909190916101000a81548173ffffffffffffffffffffffffffffffffffffffff021916908373ffffffffffffffffffffffffffffffffffffffff1602179055506001600560003373ffffffffffffffffffffffffffffffffffffffff1673ffffffffffffffffffffffffffffffffffffffff16815260200190815260200160002060008373ffffffffffffffffffffffffffffffffffffffff1673ffffffffffffffffffffffffffffffffffffffff16815260200190815260200160002060006101000a81548160ff0219169083151502179055507fa13eea547ed817bef08821ae6449e8f81238990f7dbd2cc4b2b68e60961e68d0338260405161080f92919061273f565b60405180910390a150565b6060600160003373ffffffffffffffffffffffffffffffffffffffff1673ffffffffffffffffffffffffffffffffffffffff16815260200190815260200160002060010160149054906101000a900460ff166108ab576040517f08c379a00000000000000000000000000000000000000000000000000000000081526004016108a2906127b4565b60405180910390fd5b6108b58233611a63565b6108f4576040517f08c379a00000000000000000000000000000000000000000000000000000000081526004016108eb90612820565b60405180910390fd5b600360008373ffffffffffffffffffffffffffffffffffffffff1673ffffffffffffffffffffffffffffffffffffffff168152602001908152602001600020805480602002602001604051908101604052809291908181526020016000905b82821015610a6d5783829060005260206000209060020201604051806040016040529081600082018054610986906125ca565b80601f01602080910402602001604051908101604052809291908181526020018280546109b2906125ca565b80156109ff5780601f106109d4576101008083540402835291602001916109ff565b820191906000526020600020905b8154815290600101906020018083116109e257829003601f168201915b505050505081526020016001820160009054906101000a900473ffffffffffffffffffffffffffffffffffffffff1673ffffffffffffffffffffffffffffffffffffffff1673ffffffffffffffffffffffffffffffffffffffff168152505081526020019060010190610953565b505050509050919050565b6000808383604051602001610a8e929190612888565b604051602081830303815290604052805190602001209050600660008281526020019081526020016000206002015491505092915050565b60005481565b6060600460008373ffffffffffffffffffffffffffffffffffffffff1673ffffffffffffffffffffffffffffffffffffffff168152602001908152602001600020805480602002602001604051908101604052809291908181526020018280548015610b8d57602002820191906000526020600020905b8160009054906101000a900473ffffffffffffffffffffffffffffffffffffffff1673ffffffffffffffffffffffffffffffffffffffff1681526020019060010190808311610b43575b50505050509050919050565b600160003373ffffffffffffffffffffffffffffffffffffffff1673ffffffffffffffffffffffffffffffffffffffff16815260200190815260200160002060010160149054906101000a900460ff16610c28576040517f08c379a0000000000000000000000000000000000000000000000000000000008152600401610c1f906127b4565b60405180910390fd5b600260008273ffffffffffffffffffffffffffffffffffffffff1673ffffffffffffffffffffffffffffffffffffffff16815260200190815260200160002060010160149054906101000a900460ff16610cb7576040517f08c379a0000000000000000000000000000000000000000000000000000000008152600401610cae90612900565b60405180910390fd5b60008133604051602001610ccc929190612888565b60405160208183030381529060405280519060200120905060006006600083815260200190815260200160002090508060040160009054906101000a900460ff1615610d4d576040517f08c379a0000000000000000000000000000000000000000000000000000000008152600401610d449061296c565b60405180910390fd5b600073ffffffffffffffffffffffffffffffffffffffff168160010160009054906101000a900473ffffffffffffffffffffffffffffffffffffffff1673ffffffffffffffffffffffffffffffffffffffff1614610de0576040517f08c379a0000000000000000000000000000000000000000000000000000000008152600401610dd7906129d8565b60405180910390fd5b828160000160006101000a81548173ffffffffffffffffffffffffffffffffffffffff021916908373ffffffffffffffffffffffffffffffffffffffff160217905550338160010160006101000a81548173ffffffffffffffffffffffffffffffffffffffff021916908373ffffffffffffffffffffffffffffffffffffffff1602179055507f7368ff81e764b5d798006c4fadfdf4133a38d10388c040717065baf7f4e5d1b48333604051610e9792919061273f565b60405180910390a1505050565b600260003373ffffffffffffffffffffffffffffffffffffffff1673ffffffffffffffffffffffffffffffffffffffff16815260200190815260200160002060010160149054906101000a900460ff16610f33576040517f08c379a0000000000000000000000000000000000000000000000000000000008152600401610f2a90612647565b60405180910390fd5b600560003373ffffffffffffffffffffffffffffffffffffffff1673ffffffffffffffffffffffffffffffffffffffff16815260200190815260200160002060008273ffffffffffffffffffffffffffffffffffffffff1673ffffffffffffffffffffffffffffffffffffffff16815260200190815260200160002060009054906101000a900460ff16610ffc576040517f08c379a0000000000000000000000000000000000000000000000000000000008152600401610ff390612a44565b60405180910390fd5b6000600460003373ffffffffffffffffffffffffffffffffffffffff1673ffffffffffffffffffffffffffffffffffffffff168152602001908152602001600020905060005b81805490508110156111c5578273ffffffffffffffffffffffffffffffffffffffff1682828154811061107857611077612a64565b5b9060005260206000200160009054906101000a900473ffffffffffffffffffffffffffffffffffffffff1673ffffffffffffffffffffffffffffffffffffffff16036111b25781600183805490506110d09190612ac2565b815481106110e1576110e0612a64565b5b9060005260206000200160009054906101000a900473ffffffffffffffffffffffffffffffffffffffff1682828154811061111f5761111e612a64565b5b9060005260206000200160006101000a81548173ffffffffffffffffffffffffffffffffffffffff021916908373ffffffffffffffffffffffffffffffffffffffff1602179055508180548061117857611177612af6565b5b6001900381819060005260206000200160006101000a81549073ffffffffffffffffffffffffffffffffffffffff021916905590556111c5565b80806111bd90612b25565b915050611042565b506000600560003373ffffffffffffffffffffffffffffffffffffffff1673ffffffffffffffffffffffffffffffffffffffff16815260200190815260200160002060008473ffffffffffffffffffffffffffffffffffffffff1673ffffffffffffffffffffffffffffffffffffffff16815260200190815260200160002060006101000a81548160ff0219169083151502179055507ff1ebb95d0b1d2753fe725660ff6e55e1609d8327c12949d404d16f5ce26c99f0338360405161128c92919061273f565b60405180910390a15050565b60056020528160005260406000206020528060005260406000206000915091509054906101000a900460ff1681565b600260003373ffffffffffffffffffffffffffffffffffffffff1673ffffffffffffffffffffffffffffffffffffffff16815260200190815260200160002060010160149054906101000a900460ff16611356576040517f08c379a000000000000000000000000000000000000000000000000000000000815260040161134d90612647565b60405180910390fd5b600360003373ffffffffffffffffffffffffffffffffffffffff1673ffffffffffffffffffffffffffffffffffffffff16815260200190815260200160002060405180604001604052808381526020013373ffffffffffffffffffffffffffffffffffffffff16815250908060018154018082558091505060019003906000526020600020906002020160009091909190915060008201518160000190816113fe9190612d19565b5060208201518160010160006101000a81548173ffffffffffffffffffffffffffffffffffffffff021916908373ffffffffffffffffffffffffffffffffffffffff16021790555050507f01b64c1967d10407b4ff97725353edea760930f8e25d265e786a16eecbe4d7f73382604051611479929190612deb565b60405180910390a150565b600260003373ffffffffffffffffffffffffffffffffffffffff1673ffffffffffffffffffffffffffffffffffffffff16815260200190815260200160002060010160149054906101000a900460ff1615611514576040517f08c379a000000000000000000000000000000000000000000000000000000000815260040161150b90612e67565b60405180910390fd5b60405180606001604052808281526020013373ffffffffffffffffffffffffffffffffffffffff16815260200160011515815250600260003373ffffffffffffffffffffffffffffffffffffffff1673ffffffffffffffffffffffffffffffffffffffff168152602001908152602001600020600082015181600001908161159c9190612d19565b5060208201518160010160006101000a81548173ffffffffffffffffffffffffffffffffffffffff021916908373ffffffffffffffffffffffffffffffffffffffff16021790555060408201518160010160146101000a81548160ff0219169083151502179055509050507fc85b128388b9c331a2a5485dce4cd0f3db9f7c279d327ce95d6d39d6c94644c73382604051611638929190612deb565b60405180910390a150565b600160003373ffffffffffffffffffffffffffffffffffffffff1673ffffffffffffffffffffffffffffffffffffffff16815260200190815260200160002060010160149054906101000a900460ff16156116d3576040517f08c379a00000000000000000000000000000000000000000000000000000000081526004016116ca90612ed3565b60405180910390fd5b60405180606001604052808281526020013373ffffffffffffffffffffffffffffffffffffffff16815260200160011515815250600160003373ffffffffffffffffffffffffffffffffffffffff1673ffffffffffffffffffffffffffffffffffffffff168152602001908152602001600020600082015181600001908161175b9190612d19565b5060208201518160010160006101000a81548173ffffffffffffffffffffffffffffffffffffffff021916908373ffffffffffffffffffffffffffffffffffffffff16021790555060408201518160010160146101000a81548160ff0219169083151502179055509050507f20481b8112b5bf4734f45a473c373db9df6a79ce946cdc0e7dbc22b4f7d7f98633826040516117f7929190612deb565b60405180910390a150565b6003602052816000526040600020818154811061181e57600080fd5b906000526020600020906002020160009150915050806000018054611842906125ca565b80601f016020809104026020016040519081016040528092919081815260200182805461186e906125ca565b80156118bb5780601f10611890576101008083540402835291602001916118bb565b820191906000526020600020905b81548152906001019060200180831161189e57829003601f168201915b5050505050908060010160009054906101000a900473ffffffffffffffffffffffffffffffffffffffff16905082565b6000808484604051602001611901929190612888565b6040516020818303038152906040528051906020012090506006600082815260200190815260200160002060030160008473ffffffffffffffffffffffffffffffffffffffff1673ffffffffffffffffffffffffffffffffffffffff16815260200190815260200160002060009054906101000a900460ff169150509392505050565b60016020528060005260406000206000915090508060000180546119a7906125ca565b80601f01602080910402602001604051908101604052809291908181526020018280546119d3906125ca565b8015611a205780601f106119f557610100808354040283529160200191611a20565b820191906000526020600020905b815481529060010190602001808311611a0357829003601f168201915b5050505050908060010160009054906101000a900473ffffffffffffffffffffffffffffffffffffffff16908060010160149054906101000a900460ff16905083565b6000808383604051602001611a79929190612888565b6040516020818303038152906040528051906020012090506006600082815260200190815260200160002060040160009054906101000a900460ff1691505092915050565b60046020528160005260406000208181548110611ada57600080fd5b906000526020600020016000915091509054906101000a900473ffffffffffffffffffffffffffffffffffffffff1681565b600160003373ffffffffffffffffffffffffffffffffffffffff1673ffffffffffffffffffffffffffffffffffffffff16815260200190815260200160002060010160149054906101000a900460ff16611b9b576040517f08c379a0000000000000000000000000000000000000000000000000000000008152600401611b92906127b4565b60405180910390fd5b60008282604051602001611bb0929190612888565b60405160208183030381529060405280519060200120905060006006600083815260200190815260200160002090508060040160009054906101000a900460ff1615611c31576040517f08c379a0000000000000000000000000000000000000000000000000000000008152600401611c2890612f3f565b60405180910390fd5b8060030160003373ffffffffffffffffffffffffffffffffffffffff1673ffffffffffffffffffffffffffffffffffffffff16815260200190815260200160002060009054906101000a900460ff1615611cc0576040517f08c379a0000000000000000000000000000000000000000000000000000000008152600401611cb790612fab565b60405180910390fd5b600560008573ffffffffffffffffffffffffffffffffffffffff1673ffffffffffffffffffffffffffffffffffffffff16815260200190815260200160002060003373ffffffffffffffffffffffffffffffffffffffff1673ffffffffffffffffffffffffffffffffffffffff16815260200190815260200160002060009054906101000a900460ff16611d89576040517f08c379a0000000000000000000000000000000000000000000000000000000008152600401611d8090612a44565b60405180910390fd5b60018160030160003373ffffffffffffffffffffffffffffffffffffffff1673ffffffffffffffffffffffffffffffffffffffff16815260200190815260200160002060006101000a81548160ff021916908315150217905550806002016000815480929190611df890612b25565b91905055507f7e2708ce59e084ce882188c76f6721e9550fd1d520fdeb9103f80660ca622cbf848433604051611e3093929190612fcb565b60405180910390a1600054816002015410611e9c5760018160040160006101000a81548160ff0219169083151502179055507f9f520b3bfc56d06f7065d10b4683b3f57ac8895d5026cd176dee95ce1454cb8d8484604051611e9392919061273f565b60405180910390a15b50505050565b6000604051905090565b600080fd5b600080fd5b600073ffffffffffffffffffffffffffffffffffffffff82169050919050565b6000611ee182611eb6565b9050919050565b611ef181611ed6565b8114611efc57600080fd5b50565b600081359050611f0e81611ee8565b92915050565b600060208284031215611f2a57611f29611eac565b5b6000611f3884828501611eff565b91505092915050565b600081519050919050565b600082825260208201905092915050565b60005b83811015611f7b578082015181840152602081019050611f60565b60008484015250505050565b6000601f19601f8301169050919050565b6000611fa382611f41565b611fad8185611f4c565b9350611fbd818560208601611f5d565b611fc681611f87565b840191505092915050565b611fda81611ed6565b82525050565b60008115159050919050565b611ff581611fe0565b82525050565b600060608201905081810360008301526120158186611f98565b90506120246020830185611fd1565b6120316040830184611fec565b949350505050565b600081519050919050565b600082825260208201905092915050565b6000819050602082019050919050565b600082825260208201905092915050565b600061208182611f41565b61208b8185612065565b935061209b818560208601611f5d565b6120a481611f87565b840191505092915050565b6120b881611ed6565b82525050565b600060408301600083015184820360008601526120db8282612076565b91505060208301516120f060208601826120af565b508091505092915050565b600061210783836120be565b905092915050565b6000602082019050919050565b600061212782612039565b6121318185612044565b93508360208202850161214385612055565b8060005b8581101561217f578484038952815161216085826120fb565b945061216b8361210f565b925060208a01995050600181019050612147565b50829750879550505050505092915050565b600060208201905081810360008301526121ab818461211c565b905092915050565b600080604083850312156121ca576121c9611eac565b5b60006121d885828601611eff565b92505060206121e985828601611eff565b9150509250929050565b6000819050919050565b612206816121f3565b82525050565b600060208201905061222160008301846121fd565b92915050565b600081519050919050565b600082825260208201905092915050565b6000819050602082019050919050565b600061225f83836120af565b60208301905092915050565b6000602082019050919050565b600061228382612227565b61228d8185612232565b935061229883612243565b8060005b838110156122c95781516122b08882612253565b97506122bb8361226b565b92505060018101905061229c565b5085935050505092915050565b600060208201905081810360008301526122f08184612278565b905092915050565b600060208201905061230d6000830184611fec565b92915050565b600080fd5b600080fd5b7f4e487b7100000000000000000000000000000000000000000000000000000000600052604160045260246000fd5b61235582611f87565b810181811067ffffffffffffffff821117156123745761237361231d565b5b80604052505050565b6000612387611ea2565b9050612393828261234c565b919050565b600067ffffffffffffffff8211156123b3576123b261231d565b5b6123bc82611f87565b9050602081019050919050565b82818337600083830152505050565b60006123eb6123e684612398565b61237d565b90508281526020810184848401111561240757612406612318565b5b6124128482856123c9565b509392505050565b600082601f83011261242f5761242e612313565b5b813561243f8482602086016123d8565b91505092915050565b60006020828403121561245e5761245d611eac565b5b600082013567ffffffffffffffff81111561247c5761247b611eb1565b5b6124888482850161241a565b91505092915050565b61249a816121f3565b81146124a557600080fd5b50565b6000813590506124b781612491565b92915050565b600080604083850312156124d4576124d3611eac565b5b60006124e285828601611eff565b92505060206124f3858286016124a8565b9150509250929050565b600060408201905081810360008301526125178185611f98565b90506125266020830184611fd1565b9392505050565b60008060006060848603121561254657612545611eac565b5b600061255486828701611eff565b935050602061256586828701611eff565b925050604061257686828701611eff565b9150509250925092565b60006020820190506125956000830184611fd1565b92915050565b7f4e487b7100000000000000000000000000000000000000000000000000000000600052602260045260246000fd5b600060028204905060018216806125e257607f821691505b6020821081036125f5576125f461259b565b5b50919050565b7f4f6e6c792070617469656e740000000000000000000000000000000000000000600082015250565b6000612631600c83611f4c565b915061263c826125fb565b602082019050919050565b6000602082019050818103600083015261266081612624565b9050919050565b7f4e6f742061207265676973746572656420646f63746f72000000000000000000600082015250565b600061269d601783611f4c565b91506126a882612667565b602082019050919050565b600060208201905081810360008301526126cc81612690565b9050919050565b7f446f63746f7220616c7265616479207472757374656400000000000000000000600082015250565b6000612709601683611f4c565b9150612714826126d3565b602082019050919050565b60006020820190508181036000830152612738816126fc565b9050919050565b60006040820190506127546000830185611fd1565b6127616020830184611fd1565b9392505050565b7f4f6e6c7920646f63746f72000000000000000000000000000000000000000000600082015250565b600061279e600b83611f4c565b91506127a982612768565b602082019050919050565b600060208201905081810360008301526127cd81612791565b9050919050565b7f416363657373206e6f74206772616e7465640000000000000000000000000000600082015250565b600061280a601283611f4c565b9150612815826127d4565b602082019050919050565b60006020820190508181036000830152612839816127fd565b9050919050565b60008160601b9050919050565b600061285882612840565b9050919050565b600061286a8261284d565b9050919050565b61288261287d82611ed6565b61285f565b82525050565b60006128948285612871565b6014820191506128a48284612871565b6014820191508190509392505050565b7f50617469656e74206e6f74207265676973746572656400000000000000000000600082015250565b60006128ea601683611f4c565b91506128f5826128b4565b602082019050919050565b60006020820190508181036000830152612919816128dd565b9050919050565b7f41636365737320616c7265616479206772616e74656400000000000000000000600082015250565b6000612956601683611f4c565b915061296182612920565b602082019050919050565b6000602082019050818103600083015261298581612949565b9050919050565b7f5265717565737420616c72656164792065786973747300000000000000000000600082015250565b60006129c2601683611f4c565b91506129cd8261298c565b602082019050919050565b600060208201905081810360008301526129f1816129b5565b9050919050565b7f446f63746f72206e6f7420747275737465640000000000000000000000000000600082015250565b6000612a2e601283611f4c565b9150612a39826129f8565b602082019050919050565b60006020820190508181036000830152612a5d81612a21565b9050919050565b7f4e487b7100000000000000000000000000000000000000000000000000000000600052603260045260246000fd5b7f4e487b7100000000000000000000000000000000000000000000000000000000600052601160045260246000fd5b6000612acd826121f3565b9150612ad8836121f3565b9250828203905081811115612af057612aef612a93565b5b92915050565b7f4e487b7100000000000000000000000000000000000000000000000000000000600052603160045260246000fd5b6000612b30826121f3565b91507fffffffffffffffffffffffffffffffffffffffffffffffffffffffffffffffff8203612b6257612b61612a93565b5b600182019050919050565b60008190508160005260206000209050919050565b60006020601f8301049050919050565b600082821b905092915050565b600060088302612bcf7fffffffffffffffffffffffffffffffffffffffffffffffffffffffffffffffff82612b92565b612bd98683612b92565b95508019841693508086168417925050509392505050565b6000819050919050565b6000612c16612c11612c0c846121f3565b612bf1565b6121f3565b9050919050565b6000819050919050565b612c3083612bfb565b612c44612c3c82612c1d565b848454612b9f565b825550505050565b600090565b612c59612c4c565b612c64818484612c27565b505050565b5b81811015612c8857612c7d600082612c51565b600181019050612c6a565b5050565b601f821115612ccd57612c9e81612b6d565b612ca784612b82565b81016020851015612cb6578190505b612cca612cc285612b82565b830182612c69565b50505b505050565b600082821c905092915050565b6000612cf060001984600802612cd2565b1980831691505092915050565b6000612d098383612cdf565b9150826002028217905092915050565b612d2282611f41565b67ffffffffffffffff811115612d3b57612d3a61231d565b5b612d4582546125ca565b612d50828285612c8c565b600060209050601f831160018114612d835760008415612d71578287015190505b612d7b8582612cfd565b865550612de3565b601f198416612d9186612b6d565b60005b82811015612db957848901518255600182019150602085019450602081019050612d94565b86831015612dd65784890151612dd2601f891682612cdf565b8355505b6001600288020188555050505b505050505050565b6000604082019050612e006000830185611fd1565b8181036020830152612e128184611f98565b90509392505050565b7f50617469656e7420616c72656164792072656769737465726564000000000000600082015250565b6000612e51601a83611f4c565b9150612e5c82612e1b565b602082019050919050565b60006020820190508181036000830152612e8081612e44565b9050919050565b7f446f63746f7220616c7265616479207265676973746572656400000000000000600082015250565b6000612ebd601983611f4c565b9150612ec882612e87565b602082019050919050565b60006020820190508181036000830152612eec81612eb0565b9050919050565b7f416c7265616479206772616e7465640000000000000000000000000000000000600082015250565b6000612f29600f83611f4c565b9150612f3482612ef3565b602082019050919050565b60006020820190508181036000830152612f5881612f1c565b9050919050565b7f416c726561647920617070726f76656400000000000000000000000000000000600082015250565b6000612f95601083611f4c565b9150612fa082612f5f565b602082019050919050565b60006020820190508181036000830152612fc481612f88565b9050919050565b6000606082019050612fe06000830186611fd1565b612fed6020830185611fd1565b612ffa6040830184611fd1565b94935050505056fea264697066735822122081831095b23da6a9000a610b162772aedd57a55489fcb35f0c974ae60ec8d14264736f6c63430008140033",
  "linkReferences": {},
  "deployedLinkReferences": {}
}